{
  "_format": "hh-sol-artifact-1",
  "contractName": "FCDCarbonIntensity",
  "sourceName": "contracts/FCDIntensity.sol",
  "abi": [
    {
      "inputs": [
        {
          "internalType": "address",
          "name": "initialOwner",
          "type": "address"
        }
      ],
      "stateMutability": "nonpayable",
      "type": "constructor"
    },
    {
      "inputs": [
        {
          "internalType": "address",
          "name": "owner",
          "type": "address"
        }
      ],
      "name": "OwnableInvalidOwner",
      "type": "error"
    },
    {
      "inputs": [
        {
          "internalType": "address",
          "name": "account",
          "type": "address"
        }
      ],
      "name": "OwnableUnauthorizedAccount",
      "type": "error"
    },
    {
      "anonymous": false,
      "inputs": [
        {
          "indexed": false,
          "internalType": "uint256",
          "name": "timestamp",
          "type": "uint256"
        },
        {
          "indexed": false,
          "internalType": "uint256",
          "name": "intensity",
          "type": "uint256"
        }
      ],
      "name": "CarbonIntensityAdded",
      "type": "event"
    },
    {
      "anonymous": false,
      "inputs": [
        {
          "indexed": true,
          "internalType": "address",
          "name": "previousOwner",
          "type": "address"
        },
        {
          "indexed": true,
          "internalType": "address",
          "name": "newOwner",
          "type": "address"
        }
      ],
      "name": "OwnershipTransferred",
      "type": "event"
    },
    {
      "inputs": [
        {
          "internalType": "uint256",
          "name": "_timestamp",
          "type": "uint256"
        },
        {
          "internalType": "uint256",
          "name": "_intensity",
          "type": "uint256"
        }
      ],
      "name": "addCarbonIntensity",
      "outputs": [],
      "stateMutability": "nonpayable",
      "type": "function"
    },
    {
      "inputs": [
        {
          "internalType": "uint256",
          "name": "count",
          "type": "uint256"
        }
      ],
      "name": "getLatestCarbonIntensity",
      "outputs": [
        {
          "components": [
            {
              "internalType": "uint256",
              "name": "timestamp",
              "type": "uint256"
            },
            {
              "internalType": "uint256",
              "name": "intensity",
              "type": "uint256"
            }
          ],
          "internalType": "struct CarbonIntensityRecord[]",
          "name": "",
          "type": "tuple[]"
        }
      ],
      "stateMutability": "view",
      "type": "function"
    },
    {
      "inputs": [
        {
          "internalType": "uint256",
          "name": "",
          "type": "uint256"
        }
      ],
      "name": "intensityRecords",
      "outputs": [
        {
          "internalType": "uint256",
          "name": "timestamp",
          "type": "uint256"
        },
        {
          "internalType": "uint256",
          "name": "intensity",
          "type": "uint256"
        }
      ],
      "stateMutability": "view",
      "type": "function"
    },
    {
      "inputs": [],
      "name": "owner",
      "outputs": [
        {
          "internalType": "address",
          "name": "",
          "type": "address"
        }
      ],
      "stateMutability": "view",
      "type": "function"
    },
    {
      "inputs": [
        {
          "internalType": "uint256",
          "name": "",
          "type": "uint256"
        }
      ],
      "name": "recordTimestamps",
      "outputs": [
        {
          "internalType": "uint256",
          "name": "",
          "type": "uint256"
        }
      ],
      "stateMutability": "view",
      "type": "function"
    },
    {
      "inputs": [],
      "name": "renounceOwnership",
      "outputs": [],
      "stateMutability": "nonpayable",
      "type": "function"
    },
    {
      "inputs": [
        {
          "internalType": "address",
          "name": "newOwner",
          "type": "address"
        }
      ],
      "name": "transferOwnership",
      "outputs": [],
      "stateMutability": "nonpayable",
      "type": "function"
    }
  ],
  "bytecode": "0x608060405234801561001057600080fd5b506040516106bf3803806106bf83398101604081905261002f916100be565b806001600160a01b03811661005e57604051631e4fbdf760e01b81526000600482015260240160405180910390fd5b6100678161006e565b50506100ee565b600080546001600160a01b038381166001600160a01b0319831681178455604051919092169283917f8be0079c531659141344cd1fd0a4f28419497f9722a3daafe3b4186f6b6457e09190a35050565b6000602082840312156100d057600080fd5b81516001600160a01b03811681146100e757600080fd5b9392505050565b6105c2806100fd6000396000f3fe608060405234801561001057600080fd5b506004361061007d5760003560e01c8063715018a61161005b578063715018a6146100f95780638da5cb5b14610101578063a907a78b1461011c578063f2fde38b1461013c57600080fd5b80630e9992c1146100825780632b9a4097146100a8578063317ce441146100bd575b600080fd5b61009561009036600461045e565b61014f565b6040519081526020015b60405180910390f35b6100bb6100b6366004610477565b610170565b005b6100e46100cb36600461045e565b6001602081905260009182526040909120805491015482565b6040805192835260208301919091520161009f565b6100bb61026c565b6000546040516001600160a01b03909116815260200161009f565b61012f61012a36600461045e565b610280565b60405161009f9190610499565b6100bb61014a3660046104e8565b6103a3565b6002818154811061015f57600080fd5b600091825260209091200154905081565b6101786103e1565b600082815260016020526040902054156101d15760405162461bcd60e51b81526020600482015260156024820152745265636f726420616c72656164792065786973747360581b60448201526064015b60405180910390fd5b6040805180820182528381526020808201848152600086815260018084528582208551815592519281019290925560028054928301815590527f405787fa12a823e0f2b7631cc41b3ba8828b3321ca811111fa75cd3aa3bb5ace01859055825185815290810184905290917ffcf3280b8b7e54e5ce0351faebb29086eb6c3e77387959038e91f830ff6c518e910160405180910390a1505050565b6102746103e1565b61027e600061040e565b565b60025460609060008382106102955783610297565b815b905060008167ffffffffffffffff8111156102b4576102b4610518565b6040519080825280602002602001820160405280156102f957816020015b60408051808201909152600080825260208201528152602001906001900390816102d25790505b50905060005b8281101561039a57600160006002836103188489610544565b6103229190610544565b815481106103325761033261055d565b906000526020600020015481526020019081526020016000206040518060400160405290816000820154815260200160018201548152505082828151811061037c5761037c61055d565b6020026020010181905250808061039290610573565b9150506102ff565b50949350505050565b6103ab6103e1565b6001600160a01b0381166103d557604051631e4fbdf760e01b8152600060048201526024016101c8565b6103de8161040e565b50565b6000546001600160a01b0316331461027e5760405163118cdaa760e01b81523360048201526024016101c8565b600080546001600160a01b038381166001600160a01b0319831681178455604051919092169283917f8be0079c531659141344cd1fd0a4f28419497f9722a3daafe3b4186f6b6457e09190a35050565b60006020828403121561047057600080fd5b5035919050565b6000806040838503121561048a57600080fd5b50508035926020909101359150565b602080825282518282018190526000919060409081850190868401855b828110156104db578151805185528601518685015292840192908501906001016104b6565b5091979650505050505050565b6000602082840312156104fa57600080fd5b81356001600160a01b038116811461051157600080fd5b9392505050565b634e487b7160e01b600052604160045260246000fd5b634e487b7160e01b600052601160045260246000fd5b818103818111156105575761055761052e565b92915050565b634e487b7160e01b600052603260045260246000fd5b6000600182016105855761058561052e565b506001019056fea264697066735822122032ec46be6478310e1248850993f5b6c02fb12833f425833e55b6b990946ad70264736f6c63430008140033",
  "linkReferences": {},
  "deployedLinkReferences": {}
}