{
    "_format": "hh-sol-artifact-1",
    "contractName": "FCDCarbonIntensity",
    "sourceName": "contracts/CDCarbonIntensity.sol",
    "abi": [
        {
            "inputs": [
                {
                    "internalType": "address",
                    "name": "initialOwner",
                    "type": "address"
                }
            ],
            "stateMutability": "nonpayable",
            "type": "constructor"
        },
        {
            "inputs": [
                {
                    "internalType": "address",
                    "name": "owner",
                    "type": "address"
                }
            ],
            "name": "OwnableInvalidOwner",
            "type": "error"
        },
        {
            "inputs": [
                {
                    "internalType": "address",
                    "name": "account",
                    "type": "address"
                }
            ],
            "name": "OwnableUnauthorizedAccount",
            "type": "error"
        },
        {
            "anonymous": false,
            "inputs": [
                {
                    "indexed": false,
                    "internalType": "uint256",
                    "name": "timestamp",
                    "type": "uint256"
                },
                {
                    "indexed": false,
                    "internalType": "uint256",
                    "name": "intensity",
                    "type": "uint256"
                },
                {
                    "indexed": false,
                    "internalType": "bool",
                    "name": "verified",
                    "type": "bool"
                }
            ],
            "name": "CarbonIntensityAdded",
            "type": "event"
        },
        {
            "anonymous": false,
            "inputs": [
                {
                    "indexed": true,
                    "internalType": "address",
                    "name": "previousOwner",
                    "type": "address"
                },
                {
                    "indexed": true,
                    "internalType": "address",
                    "name": "newOwner",
                    "type": "address"
                }
            ],
            "name": "OwnershipTransferred",
            "type": "event"
        },
        {
            "inputs": [
                {
                    "components": [
                        {
                            "internalType": "bytes32[]",
                            "name": "merkleProof",
                            "type": "bytes32[]"
                        },
                        {
                            "components": [
                                {
                                    "internalType": "bytes32",
                                    "name": "attestationType",
                                    "type": "bytes32"
                                },
                                {
                                    "internalType": "bytes32",
                                    "name": "sourceId",
                                    "type": "bytes32"
                                },
                                {
                                    "internalType": "uint64",
                                    "name": "votingRound",
                                    "type": "uint64"
                                },
                                {
                                    "internalType": "uint64",
                                    "name": "lowestUsedTimestamp",
                                    "type": "uint64"
                                },
                                {
                                    "components": [
                                        {
                                            "internalType": "string",
                                            "name": "url",
                                            "type": "string"
                                        },
                                        {
                                            "internalType": "string",
                                            "name": "postprocessJq",
                                            "type": "string"
                                        },
                                        {
                                            "internalType": "string",
                                            "name": "abi_signature",
                                            "type": "string"
                                        }
                                    ],
                                    "internalType": "struct IJsonApi.RequestBody",
                                    "name": "requestBody",
                                    "type": "tuple"
                                },
                                {
                                    "components": [
                                        {
                                            "internalType": "bytes",
                                            "name": "abi_encoded_data",
                                            "type": "bytes"
                                        }
                                    ],
                                    "internalType": "struct IJsonApi.ResponseBody",
                                    "name": "responseBody",
                                    "type": "tuple"
                                }
                            ],
                            "internalType": "struct IJsonApi.Response",
                            "name": "data",
                            "type": "tuple"
                        }
                    ],
                    "internalType": "struct IJsonApi.Proof",
                    "name": "proof",
                    "type": "tuple"
                }
            ],
            "name": "addCarbonIntensity",
            "outputs": [],
            "stateMutability": "nonpayable",
            "type": "function"
        },
        {
            "inputs": [
                {
                    "internalType": "uint256",
                    "name": "count",
                    "type": "uint256"
                }
            ],
            "name": "getLatestCarbonIntensity",
            "outputs": [
                {
                    "components": [
                        {
                            "internalType": "uint256",
                            "name": "timestamp",
                            "type": "uint256"
                        },
                        {
                            "internalType": "uint256",
                            "name": "intensity",
                            "type": "uint256"
                        },
                        {
                            "internalType": "bool",
                            "name": "verified",
                            "type": "bool"
                        }
                    ],
                    "internalType": "struct CarbonIntensityRecord[]",
                    "name": "",
                    "type": "tuple[]"
                }
            ],
            "stateMutability": "view",
            "type": "function"
        },
        {
            "inputs": [],
            "name": "getVerificationHub",
            "outputs": [
                {
                    "internalType": "contract IJsonApiVerification",
                    "name": "",
                    "type": "address"
                }
            ],
            "stateMutability": "view",
            "type": "function"
        },
        {
            "inputs": [
                {
                    "internalType": "uint256",
                    "name": "",
                    "type": "uint256"
                },
                {
                    "internalType": "uint256",
                    "name": "",
                    "type": "uint256"
                }
            ],
            "name": "intensityRecords",
            "outputs": [
                {
                    "internalType": "uint256",
                    "name": "timestamp",
                    "type": "uint256"
                },
                {
                    "internalType": "uint256",
                    "name": "intensity",
                    "type": "uint256"
                },
                {
                    "internalType": "bool",
                    "name": "verified",
                    "type": "bool"
                }
            ],
            "stateMutability": "view",
            "type": "function"
        },
        {
            "inputs": [
                {
                    "components": [
                        {
                            "internalType": "bytes32[]",
                            "name": "merkleProof",
                            "type": "bytes32[]"
                        },
                        {
                            "components": [
                                {
                                    "internalType": "bytes32",
                                    "name": "attestationType",
                                    "type": "bytes32"
                                },
                                {
                                    "internalType": "bytes32",
                                    "name": "sourceId",
                                    "type": "bytes32"
                                },
                                {
                                    "internalType": "uint64",
                                    "name": "votingRound",
                                    "type": "uint64"
                                },
                                {
                                    "internalType": "uint64",
                                    "name": "lowestUsedTimestamp",
                                    "type": "uint64"
                                },
                                {
                                    "components": [
                                        {
                                            "internalType": "string",
                                            "name": "url",
                                            "type": "string"
                                        },
                                        {
                                            "internalType": "string",
                                            "name": "postprocessJq",
                                            "type": "string"
                                        },
                                        {
                                            "internalType": "string",
                                            "name": "abi_signature",
                                            "type": "string"
                                        }
                                    ],
                                    "internalType": "struct IJsonApi.RequestBody",
                                    "name": "requestBody",
                                    "type": "tuple"
                                },
                                {
                                    "components": [
                                        {
                                            "internalType": "bytes",
                                            "name": "abi_encoded_data",
                                            "type": "bytes"
                                        }
                                    ],
                                    "internalType": "struct IJsonApi.ResponseBody",
                                    "name": "responseBody",
                                    "type": "tuple"
                                }
                            ],
                            "internalType": "struct IJsonApi.Response",
                            "name": "data",
                            "type": "tuple"
                        }
                    ],
                    "internalType": "struct IJsonApi.Proof",
                    "name": "_proof",
                    "type": "tuple"
                }
            ],
            "name": "isJsonApiProofValid",
            "outputs": [
                {
                    "internalType": "bool",
                    "name": "",
                    "type": "bool"
                }
            ],
            "stateMutability": "view",
            "type": "function"
        },
        {
            "inputs": [],
            "name": "owner",
            "outputs": [
                {
                    "internalType": "address",
                    "name": "",
                    "type": "address"
                }
            ],
            "stateMutability": "view",
            "type": "function"
        },
        {
            "inputs": [
                {
                    "internalType": "uint256",
                    "name": "",
                    "type": "uint256"
                }
            ],
            "name": "recordTimestamps",
            "outputs": [
                {
                    "internalType": "uint256",
                    "name": "",
                    "type": "uint256"
                }
            ],
            "stateMutability": "view",
            "type": "function"
        },
        {
            "inputs": [],
            "name": "renounceOwnership",
            "outputs": [],
            "stateMutability": "nonpayable",
            "type": "function"
        },
        {
            "inputs": [
                {
                    "internalType": "address",
                    "name": "newOwner",
                    "type": "address"
                }
            ],
            "name": "transferOwnership",
            "outputs": [],
            "stateMutability": "nonpayable",
            "type": "function"
        }
    ],
    "bytecode": "0x608060405234801561001057600080fd5b50604051610bf5380380610bf583398101604081905261002f916100be565b806001600160a01b03811661005e57604051631e4fbdf760e01b81526000600482015260240160405180910390fd5b6100678161006e565b50506100ee565b600080546001600160a01b038381166001600160a01b0319831681178455604051919092169283917f8be0079c531659141344cd1fd0a4f28419497f9722a3daafe3b4186f6b6457e09190a35050565b6000602082840312156100d057600080fd5b81516001600160a01b03811681146100e757600080fd5b9392505050565b610af8806100fd6000396000f3fe608060405234801561001057600080fd5b50600436106100935760003560e01c80639d6df051116100665780639d6df05114610107578063a907a78b1461012a578063e1b00aab1461014a578063f2fde38b1461015d578063f4bfb1351461017057600080fd5b80630e9992c11461009857806311fe6e5f146100be578063715018a6146100ec5780638da5cb5b146100f6575b600080fd5b6100ab6100a636600461062f565b6101a0565b6040519081526020015b60405180910390f35b73206d83e3a24523de1e43ab56ac8f7b9b10f6ab895b6040516001600160a01b0390911681526020016100b5565b6100f46101c1565b005b6000546001600160a01b03166100d4565b61011a610115366004610648565b6101d5565b60405190151581526020016100b5565b61013d61013836600461062f565b610256565b6040516100b5919061068a565b6100f4610158366004610648565b6103d0565b6100f461016b3660046106e5565b61052f565b61018361017e36600461070e565b61056d565b6040805193845260208401929092521515908201526060016100b5565b600281815481106101b057600080fd5b600091825260209091200154905081565b6101c96105b2565b6101d360006105df565b565b60405163d0f18f8560e01b815260009073206d83e3a24523de1e43ab56ac8f7b9b10f6ab899063d0f18f859061020f908590600401610917565b602060405180830381865afa15801561022c573d6000803e3d6000fd5b505050506040513d601f19601f8201168201806040525081019061025091906109b5565b92915050565b60606000826002805490501061026c5782610270565b6002545b905060008167ffffffffffffffff81111561028d5761028d6109d7565b6040519080825280602002602001820160405280156102e457816020015b6102d1604051806060016040528060008152602001600081526020016000151581525090565b8152602001906001900390816102ab5790505b50905060005b828110156103c85760016000600283600160028054905061030b9190610a03565b6103159190610a03565b8154811061032557610325610a16565b9060005260206000200154815260200190815260200160002060008154811061035057610350610a16565b906000526020600020906003020160405180606001604052908160008201548152602001600182015481526020016002820160009054906101000a900460ff1615151515815250508282815181106103aa576103aa610a16565b602002602001018190525080806103c090610a2c565b9150506102ea565b509392505050565b6103d86105b2565b6103e1816101d5565b6104225760405162461bcd60e51b815260206004820152600d60248201526c24b73b30b634b210383937b7b360991b60448201526064015b60405180910390fd5b6000806104326020840184610a45565b6104409060a0810190610a65565b61044a9080610a7b565b810190610457919061070e565b604080516060808201835284825260208083018581526001848601818152600089815282855287812080548085018255908252858220885160039092020190815593518484015590516002938401805460ff1916911515919091179055825480830184559290527f405787fa12a823e0f2b7631cc41b3ba8828b3321ca811111fa75cd3aa3bb5ace90910187905584518781529182018690529381019390935293955091935090917eb3c83d044c8ec82886f7c691854e87c967b7d73cdad59762470c25f9a7865e910160405180910390a150505050565b6105376105b2565b6001600160a01b03811661056157604051631e4fbdf760e01b815260006004820152602401610419565b61056a816105df565b50565b6001602052816000526040600020818154811061058957600080fd5b600091825260209091206003909102018054600182015460029092015490935090915060ff1683565b6000546001600160a01b031633146101d35760405163118cdaa760e01b8152336004820152602401610419565b600080546001600160a01b038381166001600160a01b0319831681178455604051919092169283917f8be0079c531659141344cd1fd0a4f28419497f9722a3daafe3b4186f6b6457e09190a35050565b60006020828403121561064157600080fd5b5035919050565b60006020828403121561065a57600080fd5b813567ffffffffffffffff81111561067157600080fd5b82016040818503121561068357600080fd5b9392505050565b602080825282518282018190526000919060409081850190868401855b828110156106d8578151805185528681015187860152850151151585850152606090930192908501906001016106a7565b5091979650505050505050565b6000602082840312156106f757600080fd5b81356001600160a01b038116811461068357600080fd5b6000806040838503121561072157600080fd5b50508035926020909101359150565b6000823560be1983360301811261074657600080fd5b90910192915050565b803567ffffffffffffffff8116811461076757600080fd5b919050565b6000808335601e1984360301811261078357600080fd5b830160208101925035905067ffffffffffffffff8111156107a357600080fd5b8036038213156107b257600080fd5b9250929050565b81835281816020850137506000828201602090810191909152601f909101601f19169091010190565b60008235601e1983360301811261074657600080fd5b6000610804828361076c565b602085526108166020860182846107b9565b95945050505050565b8035825260208101356020830152600061083b6040830161074f565b67ffffffffffffffff8082166040860152806108596060860161074f565b16606086015250506080820135605e1983360301811261087857600080fd5b60c06080850152820161088b818061076c565b606060c08701526108a1610120870182846107b9565b9150506108b1602083018361076c565b60bf19808885030160e08901526108c98483856107b9565b93506108d8604086018661076c565b95509250808885030161010089015250506108f48284836107b9565b9250505061090560a08401846107e2565b84820360a086015261081682826107f8565b6020815260008235601e1984360301811261093157600080fd5b830160208101903567ffffffffffffffff81111561094e57600080fd5b8060051b80360383131561096157600080fd5b60406020860152606085018290526001600160fb1b0382111561098357600080fd5b808360808701378401915061099d90506020850185610730565b6060848303016040850152610816608083018261081f565b6000602082840312156109c757600080fd5b8151801515811461068357600080fd5b634e487b7160e01b600052604160045260246000fd5b634e487b7160e01b600052601160045260246000fd5b81810381811115610250576102506109ed565b634e487b7160e01b600052603260045260246000fd5b600060018201610a3e57610a3e6109ed565b5060010190565b6000823560be19833603018112610a5b57600080fd5b9190910192915050565b60008235601e19833603018112610a5b57600080fd5b6000808335601e19843603018112610a9257600080fd5b83018035915067ffffffffffffffff821115610aad57600080fd5b6020019150368190038213156107b257600080fdfea2646970667358221220344cadaea9a7ef3988b3bc9db8109f6bc6be3849943542c7e1311e6fc7e150a164736f6c63430008140033",
    "linkReferences": {},
    "deployedLinkReferences": {}
}