{
    "_format": "hh-sol-artifact-1",
    "contractName": "FlareFDCCarbonSequestration",
    "sourceName": "contracts/ForestFDC.sol",
    "abi": [
        {
            "inputs": [
                {
                    "components": [
                        {
                            "internalType": "bytes32[]",
                            "name": "merkleProof",
                            "type": "bytes32[]"
                        },
                        {
                            "components": [
                                {
                                    "internalType": "bytes32",
                                    "name": "attestationType",
                                    "type": "bytes32"
                                },
                                {
                                    "internalType": "bytes32",
                                    "name": "sourceId",
                                    "type": "bytes32"
                                },
                                {
                                    "internalType": "uint64",
                                    "name": "votingRound",
                                    "type": "uint64"
                                },
                                {
                                    "internalType": "uint64",
                                    "name": "lowestUsedTimestamp",
                                    "type": "uint64"
                                },
                                {
                                    "components": [
                                        {
                                            "internalType": "string",
                                            "name": "url",
                                            "type": "string"
                                        },
                                        {
                                            "internalType": "string",
                                            "name": "postprocessJq",
                                            "type": "string"
                                        },
                                        {
                                            "internalType": "string",
                                            "name": "abi_signature",
                                            "type": "string"
                                        }
                                    ],
                                    "internalType": "struct IJsonApi.RequestBody",
                                    "name": "requestBody",
                                    "type": "tuple"
                                },
                                {
                                    "components": [
                                        {
                                            "internalType": "bytes",
                                            "name": "abi_encoded_data",
                                            "type": "bytes"
                                        }
                                    ],
                                    "internalType": "struct IJsonApi.ResponseBody",
                                    "name": "responseBody",
                                    "type": "tuple"
                                }
                            ],
                            "internalType": "struct IJsonApi.Response",
                            "name": "data",
                            "type": "tuple"
                        }
                    ],
                    "internalType": "struct IJsonApi.Proof",
                    "name": "data",
                    "type": "tuple"
                }
            ],
            "name": "addCarbonProject",
            "outputs": [],
            "stateMutability": "nonpayable",
            "type": "function"
        },
        {
            "inputs": [
                {
                    "internalType": "uint256",
                    "name": "",
                    "type": "uint256"
                }
            ],
            "name": "carbonProjects",
            "outputs": [
                {
                    "internalType": "string",
                    "name": "projectName",
                    "type": "string"
                },
                {
                    "internalType": "string",
                    "name": "location",
                    "type": "string"
                },
                {
                    "internalType": "uint256",
                    "name": "estimatedSequestration",
                    "type": "uint256"
                },
                {
                    "internalType": "uint256",
                    "name": "apiUid",
                    "type": "uint256"
                },
                {
                    "internalType": "bool",
                    "name": "verified",
                    "type": "bool"
                }
            ],
            "stateMutability": "view",
            "type": "function"
        },
        {
            "inputs": [],
            "name": "getAllCarbonProjects",
            "outputs": [
                {
                    "components": [
                        {
                            "internalType": "string",
                            "name": "projectName",
                            "type": "string"
                        },
                        {
                            "internalType": "string",
                            "name": "location",
                            "type": "string"
                        },
                        {
                            "internalType": "uint256",
                            "name": "estimatedSequestration",
                            "type": "uint256"
                        },
                        {
                            "internalType": "uint256",
                            "name": "apiUid",
                            "type": "uint256"
                        },
                        {
                            "internalType": "bool",
                            "name": "verified",
                            "type": "bool"
                        }
                    ],
                    "internalType": "struct CarbonProject[]",
                    "name": "",
                    "type": "tuple[]"
                }
            ],
            "stateMutability": "view",
            "type": "function"
        },
        {
            "inputs": [],
            "name": "getFdcHub",
            "outputs": [
                {
                    "internalType": "contract IFdcHub",
                    "name": "",
                    "type": "address"
                }
            ],
            "stateMutability": "view",
            "type": "function"
        },
        {
            "inputs": [],
            "name": "getFdcRequestFeeConfigurations",
            "outputs": [
                {
                    "internalType": "contract IFdcRequestFeeConfigurations",
                    "name": "",
                    "type": "address"
                }
            ],
            "stateMutability": "view",
            "type": "function"
        },
        {
            "inputs": [
                {
                    "components": [
                        {
                            "internalType": "bytes32[]",
                            "name": "merkleProof",
                            "type": "bytes32[]"
                        },
                        {
                            "components": [
                                {
                                    "internalType": "bytes32",
                                    "name": "attestationType",
                                    "type": "bytes32"
                                },
                                {
                                    "internalType": "bytes32",
                                    "name": "sourceId",
                                    "type": "bytes32"
                                },
                                {
                                    "internalType": "uint64",
                                    "name": "votingRound",
                                    "type": "uint64"
                                },
                                {
                                    "internalType": "uint64",
                                    "name": "lowestUsedTimestamp",
                                    "type": "uint64"
                                },
                                {
                                    "components": [
                                        {
                                            "internalType": "string",
                                            "name": "url",
                                            "type": "string"
                                        },
                                        {
                                            "internalType": "string",
                                            "name": "postprocessJq",
                                            "type": "string"
                                        },
                                        {
                                            "internalType": "string",
                                            "name": "abi_signature",
                                            "type": "string"
                                        }
                                    ],
                                    "internalType": "struct IJsonApi.RequestBody",
                                    "name": "requestBody",
                                    "type": "tuple"
                                },
                                {
                                    "components": [
                                        {
                                            "internalType": "bytes",
                                            "name": "abi_encoded_data",
                                            "type": "bytes"
                                        }
                                    ],
                                    "internalType": "struct IJsonApi.ResponseBody",
                                    "name": "responseBody",
                                    "type": "tuple"
                                }
                            ],
                            "internalType": "struct IJsonApi.Response",
                            "name": "data",
                            "type": "tuple"
                        }
                    ],
                    "internalType": "struct IJsonApi.Proof",
                    "name": "_proof",
                    "type": "tuple"
                }
            ],
            "name": "isJsonApiProofValid",
            "outputs": [
                {
                    "internalType": "bool",
                    "name": "",
                    "type": "bool"
                }
            ],
            "stateMutability": "view",
            "type": "function"
        },
        {
            "inputs": [
                {
                    "internalType": "uint256",
                    "name": "",
                    "type": "uint256"
                }
            ],
            "name": "projectIds",
            "outputs": [
                {
                    "internalType": "uint256",
                    "name": "",
                    "type": "uint256"
                }
            ],
            "stateMutability": "view",
            "type": "function"
        }
    ],
    "bytecode": "0x608060405234801561001057600080fd5b5061106f806100206000396000f3fe608060405234801561001057600080fd5b506004361061007d5760003560e01c8063a4526e511161005b578063a4526e51146100ef578063a48c47d814610104578063a502637b14610119578063b8f4ba1b1461013957600080fd5b806348c35ad4146100825780634c1b8b18146100a85780639d6df051146100cc575b600080fd5b61009561009036600461086b565b610141565b6040519081526020015b60405180910390f35b6100bb6100b636600461086b565b610162565b60405161009f9594939291906108ca565b6100df6100da36600461090f565b6102a5565b604051901515815260200161009f565b6101026100fd36600461090f565b610326565b005b61010c6104d8565b60405161009f9190610951565b610121610728565b6040516001600160a01b03909116815260200161009f565b610121610737565b6001818154811061015157600080fd5b600091825260209091200154905081565b60006020819052908152604090208054819061017d906109f8565b80601f01602080910402602001604051908101604052809291908181526020018280546101a9906109f8565b80156101f65780601f106101cb576101008083540402835291602001916101f6565b820191906000526020600020905b8154815290600101906020018083116101d957829003601f168201915b50505050509080600101805461020b906109f8565b80601f0160208091040260200160405190810160405280929190818152602001828054610237906109f8565b80156102845780601f1061025957610100808354040283529160200191610284565b820191906000526020600020905b81548152906001019060200180831161026757829003601f168201915b50505050600283015460038401546004909401549293909290915060ff1685565b60405163d0f18f8560e01b815260009073206d83e3a24523de1e43ab56ac8f7b9b10f6ab899063d0f18f85906102df908590600401610c13565b602060405180830381865afa1580156102fc573d6000803e3d6000fd5b505050506040513d601f19601f820116820180604052508101906103209190610cb1565b92915050565b61032f816102a5565b6103705760405162461bcd60e51b815260206004820152600d60248201526c24b73b30b634b210383937b7b360991b60448201526064015b60405180910390fd5b600061037f6020830183610cd3565b61038d9060a0810190610cf3565b6103979080610d09565b8101906103a49190610e1c565b6060810151600090815260208190526040902060030154909150156104045760405162461bcd60e51b815260206004820152601660248201527550726f6a65637420616c72656164792065786973747360501b6044820152606401610367565b6040805160a081018252825181526020808401518183015283830151828401526060808501805191840191909152600160808401525160009081529081905291909120815182919081906104589082610f13565b506020820151600182019061046d9082610f13565b506040820151600282015560608083015160038301556080909201516004909101805460ff191691151591909117905591909101516001805480820182556000919091527fb10e2d527612073b26eecdfd717e6a320cf44b4afac2b0732d9fcbe2b7fa0cf601555050565b60015460609060009067ffffffffffffffff8111156104f9576104f9610d50565b60405190808252806020026020018201604052801561055e57816020015b61054b6040518060a00160405280606081526020016060815260200160008152602001600081526020016000151581525090565b8152602001906001900390816105175790505b50905060005b600154811015610722576000806001838154811061058457610584610fd3565b906000526020600020015481526020019081526020016000206040518060a00160405290816000820180546105b8906109f8565b80601f01602080910402602001604051908101604052809291908181526020018280546105e4906109f8565b80156106315780601f1061060657610100808354040283529160200191610631565b820191906000526020600020905b81548152906001019060200180831161061457829003601f168201915b5050505050815260200160018201805461064a906109f8565b80601f0160208091040260200160405190810160405280929190818152602001828054610676906109f8565b80156106c35780601f10610698576101008083540402835291602001916106c3565b820191906000526020600020905b8154815290600101906020018083116106a657829003601f168201915b5050509183525050600282015460208201526003820154604082015260049091015460ff161515606090910152825183908390811061070457610704610fd3565b6020026020010181905250808061071a90610fe9565b915050610564565b50919050565b6000610732610741565b905090565b600061073261081c565b600073ad67fe66660fb8dfe9d6b1b4240d8650e30f60196001600160a01b031663159354a26040516020016107a7906020808252601b908201527f46646352657175657374466565436f6e66696775726174696f6e730000000000604082015260600190565b604051602081830303815290604052805190602001206040518263ffffffff1660e01b81526004016107db91815260200190565b602060405180830381865afa1580156107f8573d6000803e3d6000fd5b505050506040513d601f19601f820116820180604052508101906107329190611010565b600073ad67fe66660fb8dfe9d6b1b4240d8650e30f60196001600160a01b031663159354a26040516020016107a790602080825260069082015265233231a43ab160d11b604082015260600190565b60006020828403121561087d57600080fd5b5035919050565b6000815180845260005b818110156108aa5760208185018101518683018201520161088e565b506000602082860101526020601f19601f83011685010191505092915050565b60a0815260006108dd60a0830188610884565b82810360208401526108ef8188610884565b604084019690965250506060810192909252151560809091015292915050565b60006020828403121561092157600080fd5b813567ffffffffffffffff81111561093857600080fd5b82016040818503121561094a57600080fd5b9392505050565b60006020808301818452808551808352604092508286019150828160051b87010184880160005b838110156109ea57603f19898403018552815160a0815181865261099e82870182610884565b915050888201518582038a8701526109b68282610884565b838a0151878b0152606080850151908801526080938401511515939096019290925250509386019390860190600101610978565b509098975050505050505050565b600181811c90821680610a0c57607f821691505b60208210810361072257634e487b7160e01b600052602260045260246000fd5b6000823560be19833603018112610a4257600080fd5b90910192915050565b803567ffffffffffffffff81168114610a6357600080fd5b919050565b6000808335601e19843603018112610a7f57600080fd5b830160208101925035905067ffffffffffffffff811115610a9f57600080fd5b803603821315610aae57600080fd5b9250929050565b81835281816020850137506000828201602090810191909152601f909101601f19169091010190565b60008235601e19833603018112610a4257600080fd5b6000610b008283610a68565b60208552610b12602086018284610ab5565b95945050505050565b80358252602081013560208301526000610b3760408301610a4b565b67ffffffffffffffff808216604086015280610b5560608601610a4b565b16606086015250506080820135605e19833603018112610b7457600080fd5b60c060808501528201610b878180610a68565b606060c0870152610b9d61012087018284610ab5565b915050610bad6020830183610a68565b60bf19808885030160e0890152610bc5848385610ab5565b9350610bd46040860186610a68565b9550925080888503016101008901525050610bf0828483610ab5565b92505050610c0160a0840184610ade565b84820360a0860152610b128282610af4565b6020815260008235601e19843603018112610c2d57600080fd5b830160208101903567ffffffffffffffff811115610c4a57600080fd5b8060051b803603831315610c5d57600080fd5b60406020860152606085018290526001600160fb1b03821115610c7f57600080fd5b8083608087013784019150610c9990506020850185610a2c565b6060848303016040850152610b126080830182610b1b565b600060208284031215610cc357600080fd5b8151801515811461094a57600080fd5b6000823560be19833603018112610ce957600080fd5b9190910192915050565b60008235601e19833603018112610ce957600080fd5b6000808335601e19843603018112610d2057600080fd5b83018035915067ffffffffffffffff821115610d3b57600080fd5b602001915036819003821315610aae57600080fd5b634e487b7160e01b600052604160045260246000fd5b6040516080810167ffffffffffffffff81118282101715610d8957610d89610d50565b60405290565b600082601f830112610da057600080fd5b813567ffffffffffffffff80821115610dbb57610dbb610d50565b604051601f8301601f19908116603f01168101908282118183101715610de357610de3610d50565b81604052838152866020858801011115610dfc57600080fd5b836020870160208301376000602085830101528094505050505092915050565b600060208284031215610e2e57600080fd5b813567ffffffffffffffff80821115610e4657600080fd5b9083019060808286031215610e5a57600080fd5b610e62610d66565b823582811115610e7157600080fd5b610e7d87828601610d8f565b825250602083013582811115610e9257600080fd5b610e9e87828601610d8f565b602083015250604083013560408201526060830135606082015280935050505092915050565b601f821115610f0e57600081815260208120601f850160051c81016020861015610eeb5750805b601f850160051c820191505b81811015610f0a57828155600101610ef7565b5050505b505050565b815167ffffffffffffffff811115610f2d57610f2d610d50565b610f4181610f3b84546109f8565b84610ec4565b602080601f831160018114610f765760008415610f5e5750858301515b600019600386901b1c1916600185901b178555610f0a565b600085815260208120601f198616915b82811015610fa557888601518255948401946001909101908401610f86565b5085821015610fc35787850151600019600388901b60f8161c191681555b5050505050600190811b01905550565b634e487b7160e01b600052603260045260246000fd5b60006001820161100957634e487b7160e01b600052601160045260246000fd5b5060010190565b60006020828403121561102257600080fd5b81516001600160a01b038116811461094a57600080fdfea26469706673582212209a62704754e7550335ac1a3029c71a204c8d4e407b3d78cd08f2f10fb28fec3e64736f6c63430008140033",
    "linkReferences": {},
    "deployedLinkReferences": {}
}