{
    "_format": "hh-sol-artifact-1",
    "contractName": "ForestFlow",
    "sourceName": "contracts/ForestFlow.sol",
    "abi": [
        {
            "inputs": [
                {
                    "internalType": "address",
                    "name": "_forestToken",
                    "type": "address"
                }
            ],
            "stateMutability": "nonpayable",
            "type": "constructor"
        },
        {
            "inputs": [
                {
                    "internalType": "address",
                    "name": "owner",
                    "type": "address"
                }
            ],
            "name": "OwnableInvalidOwner",
            "type": "error"
        },
        {
            "inputs": [
                {
                    "internalType": "address",
                    "name": "account",
                    "type": "address"
                }
            ],
            "name": "OwnableUnauthorizedAccount",
            "type": "error"
        },
        {
            "anonymous": false,
            "inputs": [
                {
                    "indexed": true,
                    "internalType": "address",
                    "name": "buyer",
                    "type": "address"
                },
                {
                    "indexed": false,
                    "internalType": "uint256",
                    "name": "tokenAmount",
                    "type": "uint256"
                }
            ],
            "name": "CarbonTokenBought",
            "type": "event"
        },
        {
            "anonymous": false,
            "inputs": [
                {
                    "indexed": true,
                    "internalType": "uint256",
                    "name": "projectId",
                    "type": "uint256"
                },
                {
                    "indexed": true,
                    "internalType": "address",
                    "name": "investor",
                    "type": "address"
                },
                {
                    "indexed": false,
                    "internalType": "uint256",
                    "name": "amount",
                    "type": "uint256"
                }
            ],
            "name": "InvestmentMade",
            "type": "event"
        },
        {
            "anonymous": false,
            "inputs": [
                {
                    "indexed": true,
                    "internalType": "address",
                    "name": "previousOwner",
                    "type": "address"
                },
                {
                    "indexed": true,
                    "internalType": "address",
                    "name": "newOwner",
                    "type": "address"
                }
            ],
            "name": "OwnershipTransferred",
            "type": "event"
        },
        {
            "anonymous": false,
            "inputs": [
                {
                    "indexed": true,
                    "internalType": "uint256",
                    "name": "projectId",
                    "type": "uint256"
                },
                {
                    "indexed": false,
                    "internalType": "string",
                    "name": "projectName",
                    "type": "string"
                },
                {
                    "indexed": false,
                    "internalType": "string",
                    "name": "projectLocation",
                    "type": "string"
                },
                {
                    "indexed": false,
                    "internalType": "uint256",
                    "name": "estimatedCO2",
                    "type": "uint256"
                },
                {
                    "indexed": false,
                    "internalType": "uint256",
                    "name": "minInvestment",
                    "type": "uint256"
                }
            ],
            "name": "ProjectListed",
            "type": "event"
        },
        {
            "anonymous": false,
            "inputs": [
                {
                    "indexed": true,
                    "internalType": "address",
                    "name": "user",
                    "type": "address"
                },
                {
                    "indexed": false,
                    "internalType": "string",
                    "name": "name",
                    "type": "string"
                },
                {
                    "indexed": false,
                    "internalType": "string",
                    "name": "email",
                    "type": "string"
                }
            ],
            "name": "UserRegistered",
            "type": "event"
        },
        {
            "inputs": [
                {
                    "internalType": "uint256",
                    "name": "tokenAmount",
                    "type": "uint256"
                }
            ],
            "name": "buyCarbonToken",
            "outputs": [],
            "stateMutability": "payable",
            "type": "function"
        },
        {
            "inputs": [
                {
                    "internalType": "address",
                    "name": "",
                    "type": "address"
                }
            ],
            "name": "carbonTokenBalance",
            "outputs": [
                {
                    "internalType": "uint256",
                    "name": "",
                    "type": "uint256"
                }
            ],
            "stateMutability": "view",
            "type": "function"
        },
        {
            "inputs": [],
            "name": "carbonTokenPrice",
            "outputs": [
                {
                    "internalType": "uint256",
                    "name": "",
                    "type": "uint256"
                }
            ],
            "stateMutability": "view",
            "type": "function"
        },
        {
            "inputs": [],
            "name": "forestToken",
            "outputs": [
                {
                    "internalType": "contract ForestToken",
                    "name": "",
                    "type": "address"
                }
            ],
            "stateMutability": "view",
            "type": "function"
        },
        {
            "inputs": [
                {
                    "internalType": "uint256",
                    "name": "projectId",
                    "type": "uint256"
                }
            ],
            "name": "investInProject",
            "outputs": [],
            "stateMutability": "payable",
            "type": "function"
        },
        {
            "inputs": [
                {
                    "internalType": "string",
                    "name": "projectName",
                    "type": "string"
                },
                {
                    "internalType": "string",
                    "name": "projectLocation",
                    "type": "string"
                },
                {
                    "internalType": "uint256",
                    "name": "estimatedCO2",
                    "type": "uint256"
                },
                {
                    "internalType": "uint256",
                    "name": "minInvestment",
                    "type": "uint256"
                }
            ],
            "name": "listProject",
            "outputs": [],
            "stateMutability": "nonpayable",
            "type": "function"
        },
        {
            "inputs": [],
            "name": "owner",
            "outputs": [
                {
                    "internalType": "address",
                    "name": "",
                    "type": "address"
                }
            ],
            "stateMutability": "view",
            "type": "function"
        },
        {
            "inputs": [],
            "name": "projectCounter",
            "outputs": [
                {
                    "internalType": "uint256",
                    "name": "",
                    "type": "uint256"
                }
            ],
            "stateMutability": "view",
            "type": "function"
        },
        {
            "inputs": [
                {
                    "internalType": "uint256",
                    "name": "",
                    "type": "uint256"
                }
            ],
            "name": "projects",
            "outputs": [
                {
                    "internalType": "string",
                    "name": "projectName",
                    "type": "string"
                },
                {
                    "internalType": "string",
                    "name": "projectLocation",
                    "type": "string"
                },
                {
                    "internalType": "uint256",
                    "name": "estimatedCO2",
                    "type": "uint256"
                },
                {
                    "internalType": "uint256",
                    "name": "minInvestment",
                    "type": "uint256"
                },
                {
                    "internalType": "address payable",
                    "name": "owner",
                    "type": "address"
                }
            ],
            "stateMutability": "view",
            "type": "function"
        },
        {
            "inputs": [
                {
                    "internalType": "string",
                    "name": "name",
                    "type": "string"
                },
                {
                    "internalType": "string",
                    "name": "email",
                    "type": "string"
                }
            ],
            "name": "registerUser",
            "outputs": [],
            "stateMutability": "nonpayable",
            "type": "function"
        },
        {
            "inputs": [],
            "name": "registrationReward",
            "outputs": [
                {
                    "internalType": "uint256",
                    "name": "",
                    "type": "uint256"
                }
            ],
            "stateMutability": "view",
            "type": "function"
        },
        {
            "inputs": [],
            "name": "renounceOwnership",
            "outputs": [],
            "stateMutability": "nonpayable",
            "type": "function"
        },
        {
            "inputs": [
                {
                    "internalType": "address",
                    "name": "newOwner",
                    "type": "address"
                }
            ],
            "name": "transferOwnership",
            "outputs": [],
            "stateMutability": "nonpayable",
            "type": "function"
        },
        {
            "inputs": [
                {
                    "internalType": "address",
                    "name": "",
                    "type": "address"
                }
            ],
            "name": "users",
            "outputs": [
                {
                    "internalType": "string",
                    "name": "name",
                    "type": "string"
                },
                {
                    "internalType": "string",
                    "name": "email",
                    "type": "string"
                },
                {
                    "internalType": "bool",
                    "name": "registered",
                    "type": "bool"
                }
            ],
            "stateMutability": "view",
            "type": "function"
        }
    ],
    "bytecode": "0x6080604052671bc16d674ec80000600355678ac7230489e8000060045534801561002857600080fd5b50604051611007380380611007833981016040819052610047916100ec565b338061006d57604051631e4fbdf760e01b81526000600482015260240160405180910390fd5b6100768161009c565b50600180546001600160a01b0319166001600160a01b039290921691909117905561011c565b600080546001600160a01b038381166001600160a01b0319831681178455604051919092169283917f8be0079c531659141344cd1fd0a4f28419497f9722a3daafe3b4186f6b6457e09190a35050565b6000602082840312156100fe57600080fd5b81516001600160a01b038116811461011557600080fd5b9392505050565b610edc8061012b6000396000f3fe6080604052600436106100dd5760003560e01c8063865909f61161007f578063a87430ba11610059578063a87430ba14610232578063bb154db614610261578063f2fde38b14610281578063f8a518ed146102a157600080fd5b8063865909f6146101ca5780638da5cb5b146101e0578063a79985901461021257600080fd5b806347b486da116100bb57806347b486da146101625780635b562fd814610175578063715018a6146101885780637db407931461019d57600080fd5b8063107046bd146100e25780631d2e4afd1461011c5780633ec766e61461013e575b600080fd5b3480156100ee57600080fd5b506101026100fd366004610a09565b6102b7565b604051610113959493929190610a68565b60405180910390f35b34801561012857600080fd5b5061013c610137366004610b57565b610400565b005b34801561014a57600080fd5b5061015460035481565b604051908152602001610113565b61013c610170366004610a09565b610575565b61013c610183366004610a09565b610625565b34801561019457600080fd5b5061013c610709565b3480156101a957600080fd5b506101546101b8366004610bbb565b60076020526000908152604090205481565b3480156101d657600080fd5b5061015460045481565b3480156101ec57600080fd5b506000546001600160a01b03165b6040516001600160a01b039091168152602001610113565b34801561021e57600080fd5b5061013c61022d366004610beb565b61071d565b34801561023e57600080fd5b5061025261024d366004610bbb565b610819565b60405161011393929190610c5f565b34801561026d57600080fd5b506001546101fa906001600160a01b031681565b34801561028d57600080fd5b5061013c61029c366004610bbb565b61094e565b3480156102ad57600080fd5b5061015460025481565b6006602052600090815260409020805481906102d290610c97565b80601f01602080910402602001604051908101604052809291908181526020018280546102fe90610c97565b801561034b5780601f106103205761010080835404028352916020019161034b565b820191906000526020600020905b81548152906001019060200180831161032e57829003601f168201915b50505050509080600101805461036090610c97565b80601f016020809104026020016040519081016040528092919081815260200182805461038c90610c97565b80156103d95780601f106103ae576101008083540402835291602001916103d9565b820191906000526020600020905b8154815290600101906020018083116103bc57829003601f168201915b5050505060028301546003840154600490940154929390929091506001600160a01b031685565b3360009081526005602052604090206002015460ff161561045d5760405162461bcd60e51b8152602060048201526012602482015271105b1c9958591e481c9959da5cdd195c995960721b60448201526064015b60405180910390fd5b604080516060810182528381526020808201849052600182840152336000908152600590915291909120815181906104959082610d20565b50602082015160018201906104aa9082610d20565b50604091820151600291909101805460ff19169115159190911790556001546004805492516340c10f1960e01b8152339181019190915260248101929092526001600160a01b0316906340c10f1990604401600060405180830381600087803b15801561051657600080fd5b505af115801561052a573d6000803e3d6000fd5b50505050336001600160a01b03167f92822564bab8864c3a47b34e8d23fbce5c46234eb5da261f94087b995ac0f33b8383604051610569929190610de0565b60405180910390a25050565b6000600354826105859190610e24565b9050803410156105cf5760405162461bcd60e51b8152602060048201526015602482015274139bdd08195b9bdd59da0810cc919314881cd95b9d605a1b6044820152606401610454565b33600090815260076020526040812080548492906105ee908490610e41565b909155505060405182815233907f5928bf5173b93e8b855dfbbd525d864a0869787881d9d2f891eb34e03dd25f2590602001610569565b6000818152600660205260409020600301543410156106865760405162461bcd60e51b815260206004820152601860248201527f496e766573746d656e742062656c6f77206d696e696d756d00000000000000006044820152606401610454565b6000818152600660205260408082206004015490516001600160a01b03909116913480156108fc02929091818181858888f193505050501580156106ce573d6000803e3d6000fd5b50604051348152339082907f89728d542d77fad9fe42c7d1f032c2b85f64cf938d754183b0e95359fbfac8a19060200160405180910390a350565b61071161098c565b61071b60006109b9565b565b6040805160a0810182528581526020808201869052818301859052606082018490523360808301526002546000908152600690915291909120815181906107649082610d20565b50602082015160018201906107799082610d20565b50604082015181600201556060820151816003015560808201518160040160006101000a8154816001600160a01b0302191690836001600160a01b031602179055509050506002547fa394696ee085594d1d107eea0b49af9d2b23874989553c35c8eebb83d8e31785858585856040516107f69493929190610e54565b60405180910390a26002805490600061080e83610e8d565b919050555050505050565b60056020526000908152604090208054819061083490610c97565b80601f016020809104026020016040519081016040528092919081815260200182805461086090610c97565b80156108ad5780601f10610882576101008083540402835291602001916108ad565b820191906000526020600020905b81548152906001019060200180831161089057829003601f168201915b5050505050908060010180546108c290610c97565b80601f01602080910402602001604051908101604052809291908181526020018280546108ee90610c97565b801561093b5780601f106109105761010080835404028352916020019161093b565b820191906000526020600020905b81548152906001019060200180831161091e57829003601f168201915b5050506002909301549192505060ff1683565b61095661098c565b6001600160a01b03811661098057604051631e4fbdf760e01b815260006004820152602401610454565b610989816109b9565b50565b6000546001600160a01b0316331461071b5760405163118cdaa760e01b8152336004820152602401610454565b600080546001600160a01b038381166001600160a01b0319831681178455604051919092169283917f8be0079c531659141344cd1fd0a4f28419497f9722a3daafe3b4186f6b6457e09190a35050565b600060208284031215610a1b57600080fd5b5035919050565b6000815180845260005b81811015610a4857602081850181015186830182015201610a2c565b506000602082860101526020601f19601f83011685010191505092915050565b60a081526000610a7b60a0830188610a22565b8281036020840152610a8d8188610a22565b6040840196909652505060608101929092526001600160a01b031660809091015292915050565b634e487b7160e01b600052604160045260246000fd5b600082601f830112610adb57600080fd5b813567ffffffffffffffff80821115610af657610af6610ab4565b604051601f8301601f19908116603f01168101908282118183101715610b1e57610b1e610ab4565b81604052838152866020858801011115610b3757600080fd5b836020870160208301376000602085830101528094505050505092915050565b60008060408385031215610b6a57600080fd5b823567ffffffffffffffff80821115610b8257600080fd5b610b8e86838701610aca565b93506020850135915080821115610ba457600080fd5b50610bb185828601610aca565b9150509250929050565b600060208284031215610bcd57600080fd5b81356001600160a01b0381168114610be457600080fd5b9392505050565b60008060008060808587031215610c0157600080fd5b843567ffffffffffffffff80821115610c1957600080fd5b610c2588838901610aca565b95506020870135915080821115610c3b57600080fd5b50610c4887828801610aca565b949794965050505060408301359260600135919050565b606081526000610c726060830186610a22565b8281036020840152610c848186610a22565b9150508215156040830152949350505050565b600181811c90821680610cab57607f821691505b602082108103610ccb57634e487b7160e01b600052602260045260246000fd5b50919050565b601f821115610d1b57600081815260208120601f850160051c81016020861015610cf85750805b601f850160051c820191505b81811015610d1757828155600101610d04565b5050505b505050565b815167ffffffffffffffff811115610d3a57610d3a610ab4565b610d4e81610d488454610c97565b84610cd1565b602080601f831160018114610d835760008415610d6b5750858301515b600019600386901b1c1916600185901b178555610d17565b600085815260208120601f198616915b82811015610db257888601518255948401946001909101908401610d93565b5085821015610dd05787850151600019600388901b60f8161c191681555b5050505050600190811b01905550565b604081526000610df36040830185610a22565b8281036020840152610e058185610a22565b95945050505050565b634e487b7160e01b600052601160045260246000fd5b8082028115828204841417610e3b57610e3b610e0e565b92915050565b80820180821115610e3b57610e3b610e0e565b608081526000610e676080830187610a22565b8281036020840152610e798187610a22565b604084019590955250506060015292915050565b600060018201610e9f57610e9f610e0e565b506001019056fea264697066735822122026b73d1f1acb0eb27ef9ffffd45998e8f16deea5775b2d8b9b7d7ad7a05bb0a464736f6c63430008140033",
    "linkReferences": {},
    "deployedLinkReferences": {}
}