{
    "_format": "hh-sol-artifact-1",
    "contractName": "FlareUSDToFLRConverter",
    "sourceName": "contracts/ForestFTSO.sol",
    "abi": [
        {
            "inputs": [],
            "stateMutability": "nonpayable",
            "type": "constructor"
        },
        {
            "inputs": [
                {
                    "internalType": "uint256",
                    "name": "usdAmount",
                    "type": "uint256"
                }
            ],
            "name": "convertUsdToFlr",
            "outputs": [
                {
                    "internalType": "uint256",
                    "name": "",
                    "type": "uint256"
                }
            ],
            "stateMutability": "view",
            "type": "function"
        },
        {
            "inputs": [],
            "name": "flrUsdId",
            "outputs": [
                {
                    "internalType": "bytes21",
                    "name": "",
                    "type": "bytes21"
                }
            ],
            "stateMutability": "view",
            "type": "function"
        },
        {
            "inputs": [],
            "name": "getAvailablePriceFeedNames",
            "outputs": [
                {
                    "internalType": "string[]",
                    "name": "feedNames",
                    "type": "string[]"
                }
            ],
            "stateMutability": "view",
            "type": "function"
        },
        {
            "inputs": [],
            "name": "getAvailablePriceFeeds",
            "outputs": [
                {
                    "internalType": "bytes21[]",
                    "name": "",
                    "type": "bytes21[]"
                }
            ],
            "stateMutability": "view",
            "type": "function"
        },
        {
            "inputs": [
                {
                    "internalType": "bytes21",
                    "name": "feedId",
                    "type": "bytes21"
                }
            ],
            "name": "getFeedPrice",
            "outputs": [
                {
                    "internalType": "uint256",
                    "name": "",
                    "type": "uint256"
                },
                {
                    "internalType": "uint8",
                    "name": "",
                    "type": "uint8"
                },
                {
                    "internalType": "uint64",
                    "name": "",
                    "type": "uint64"
                }
            ],
            "stateMutability": "view",
            "type": "function"
        },
        {
            "inputs": [
                {
                    "internalType": "string",
                    "name": "feedName",
                    "type": "string"
                }
            ],
            "name": "getFeedPriceByName",
            "outputs": [
                {
                    "internalType": "uint256",
                    "name": "",
                    "type": "uint256"
                },
                {
                    "internalType": "uint8",
                    "name": "",
                    "type": "uint8"
                },
                {
                    "internalType": "uint64",
                    "name": "",
                    "type": "uint64"
                }
            ],
            "stateMutability": "view",
            "type": "function"
        },
        {
            "inputs": [],
            "name": "getFlrUsdPrice",
            "outputs": [
                {
                    "internalType": "uint256",
                    "name": "",
                    "type": "uint256"
                },
                {
                    "internalType": "uint8",
                    "name": "",
                    "type": "uint8"
                },
                {
                    "internalType": "uint64",
                    "name": "",
                    "type": "uint64"
                }
            ],
            "stateMutability": "view",
            "type": "function"
        }
    ],
    "bytecode": "0x6080604052600280546001600160a81b031916665193148bd554d1606a1b17905534801561002c57600080fd5b50610035610082565b600080546001600160a01b0319166001600160a01b039290921691909117905561005d61014b565b600180546001600160a01b0319166001600160a01b03929092169190911790556101e1565b600073ad67fe66660fb8dfe9d6b1b4240d8650e30f60196001600160a01b031663159354a26040516020016100d190602080825260069082015265233a39b7ab1960d11b604082015260600190565b604051602081830303815290604052805190602001206040518263ffffffff1660e01b815260040161010591815260200190565b602060405180830381865afa158015610122573d6000803e3d6000fd5b505050506040513d601f19601f8201168201806040525081019061014691906101b1565b905090565b600073ad67fe66660fb8dfe9d6b1b4240d8650e30f60196001600160a01b031663159354a26040516020016100d19060208082526013908201527f4674736f466565644964436f6e76657274657200000000000000000000000000604082015260600190565b6000602082840312156101c357600080fd5b81516001600160a01b03811681146101da57600080fd5b9392505050565b610cc3806101f06000396000f3fe608060405234801561001057600080fd5b506004361061007d5760003560e01c8063d77a18eb1161005b578063d77a18eb146100ea578063d790bd82146100ff578063ecd426f414610112578063f8d2e7ba1461013857600080fd5b806308200a7c1461008257806358fe7e7e146100b6578063d7549762146100d7575b600080fd5b61008a61014d565b6040805193845260ff909216602084015267ffffffffffffffff16908201526060015b60405180910390f35b6100c96100c4366004610707565b6101e3565b6040519081526020016100ad565b61008a6100e5366004610790565b610274565b6100f2610381565b6040516100ad919061086b565b61008a61010d3660046108e6565b610469565b60025461011f9060581b81565b6040516001600160581b031990911681526020016100ad565b6101406104f8565b6040516100ad919061090a565b600080546002546040516349f4fc0360e11b815260589190911b6001600160581b0319166004820152829182918291829182916001600160a01b0316906393e9f80690602401606060405180830381865afa1580156101b0573d6000803e3d6000fd5b505050506040513d601f19601f820116820180604052508101906101d49190610958565b91989097509095509350505050565b60008060006101f061014d565b5091509150600082116102495760405162461bcd60e51b815260206004820152601760248201527f496e76616c696420707269636520666565642064617461000000000000000000604482015260640160405180910390fd5b60008261025783600a610aaa565b6102619087610ab9565b61026b9190610ad0565b95945050505050565b60018054604051633e2dea0960e21b81526000928392839283926001600160a01b039092169163f8b7a824916102af91908990600401610af2565b602060405180830381865afa1580156102cc573d6000803e3d6000fd5b505050506040513d601f19601f820116820180604052508101906102f09190610b16565b600080546040516349f4fc0360e11b81526001600160581b0319841660048201529293509091829182916001600160a01b03909116906393e9f80690602401606060405180830381865afa15801561034c573d6000803e3d6000fd5b505050506040513d601f19601f820116820180604052508101906103709190610958565b919a90995090975095505050505050565b6060600061038d6104f8565b9050805167ffffffffffffffff8111156103a9576103a9610720565b6040519080825280602002602001820160405280156103dc57816020015b60608152602001906001900390816103c75790505b50915060005b8151811015610464578181815181106103fd576103fd610b33565b602002602001015160405160200161042591906001600160581b031991909116815260150190565b60405160208183030381529060405283828151811061044657610446610b33565b6020026020010181905250808061045c90610b49565b9150506103e2565b505090565b600080546040516349f4fc0360e11b81526001600160581b031984166004820152829182918291829182916001600160a01b0316906393e9f80690602401606060405180830381865afa1580156104c4573d6000803e3d6000fd5b505050506040513d601f19601f820116820180604052508101906104e89190610958565b9199909850909650945050505050565b60606000610504610627565b90506000816001600160a01b03166331038aad6040518163ffffffff1660e01b8152600401600060405180830381865afa158015610546573d6000803e3d6000fd5b505050506040513d6000823e601f3d908101601f1916820160405261056e9190810190610b62565b90506000815167ffffffffffffffff81111561058c5761058c610720565b6040519080825280602002602001820160405280156105b5578160200160208202803683370190505b50905060005b825181101561061f578281815181106105d6576105d6610b33565b6020026020010151600001518282815181106105f4576105f4610b33565b6001600160581b0319909216602092830291909101909101528061061781610b49565b9150506105bb565b509392505050565b600073ad67fe66660fb8dfe9d6b1b4240d8650e30f60196001600160a01b031663159354a260405160200161068d9060208082526018908201527f4661737455706461746573436f6e66696775726174696f6e0000000000000000604082015260600190565b604051602081830303815290604052805190602001206040518263ffffffff1660e01b81526004016106c191815260200190565b602060405180830381865afa1580156106de573d6000803e3d6000fd5b505050506040513d601f19601f820116820180604052508101906107029190610c64565b905090565b60006020828403121561071957600080fd5b5035919050565b634e487b7160e01b600052604160045260246000fd5b6040516060810167ffffffffffffffff8111828210171561075957610759610720565b60405290565b604051601f8201601f1916810167ffffffffffffffff8111828210171561078857610788610720565b604052919050565b600060208083850312156107a357600080fd5b823567ffffffffffffffff808211156107bb57600080fd5b818501915085601f8301126107cf57600080fd5b8135818111156107e1576107e1610720565b6107f3601f8201601f1916850161075f565b9150808252868482850101111561080957600080fd5b8084840185840137600090820190930192909252509392505050565b6000815180845260005b8181101561084b5760208185018101518683018201520161082f565b506000602082860101526020601f19601f83011685010191505092915050565b6000602080830181845280855180835260408601915060408160051b870101925083870160005b828110156108c057603f198886030184526108ae858351610825565b94509285019290850190600101610892565b5092979650505050505050565b6001600160581b0319811681146108e357600080fd5b50565b6000602082840312156108f857600080fd5b8135610903816108cd565b9392505050565b6020808252825182820181905260009190848201906040850190845b8181101561094c5783516001600160581b03191683529284019291840191600101610926565b50909695505050505050565b60008060006060848603121561096d57600080fd5b8351925060208401518060000b811461098557600080fd5b604085015190925067ffffffffffffffff811681146109a357600080fd5b809150509250925092565b634e487b7160e01b600052601160045260246000fd5b600181815b808511156109ff5781600019048211156109e5576109e56109ae565b808516156109f257918102915b93841c93908002906109c9565b509250929050565b600082610a1657506001610aa4565b81610a2357506000610aa4565b8160018114610a395760028114610a4357610a5f565b6001915050610aa4565b60ff841115610a5457610a546109ae565b50506001821b610aa4565b5060208310610133831016604e8410600b8410161715610a82575081810a610aa4565b610a8c83836109c4565b8060001904821115610aa057610aa06109ae565b0290505b92915050565b600061090360ff841683610a07565b8082028115828204841417610aa457610aa46109ae565b600082610aed57634e487b7160e01b600052601260045260246000fd5b500490565b60ff83168152604060208201526000610b0e6040830184610825565b949350505050565b600060208284031215610b2857600080fd5b8151610903816108cd565b634e487b7160e01b600052603260045260246000fd5b600060018201610b5b57610b5b6109ae565b5060010190565b60006020808385031215610b7557600080fd5b825167ffffffffffffffff80821115610b8d57600080fd5b818501915085601f830112610ba157600080fd5b815181811115610bb357610bb3610720565b610bc1848260051b0161075f565b81815284810192506060918202840185019188831115610be057600080fd5b938501935b82851015610c585780858a031215610bfd5760008081fd5b610c05610736565b8551610c10816108cd565b81528587015163ffffffff81168114610c295760008081fd5b8188015260408681015162ffffff81168114610c455760008081fd5b9082015284529384019392850192610be5565b50979650505050505050565b600060208284031215610c7657600080fd5b81516001600160a01b038116811461090357600080fdfea2646970667358221220e2283c9d3c2e1ba2caee8fe56d1f6e7c5af6c572e77ebfe6f523c000364bb53064736f6c63430008140033",
    "linkReferences": {},
    "deployedLinkReferences": {}
}